{
  "_format": "hh-sol-artifact-1",
  "contractName": "UTB",
  "sourceName": "contracts/UTB.sol",
  "abi": [
    {
      "inputs": [
        {
          "internalType": "string",
          "name": "_collectionName",
          "type": "string"
        },
        {
          "internalType": "string",
          "name": "_collectionSymbol",
          "type": "string"
        },
        {
          "internalType": "string",
          "name": "_baseTokenURI",
          "type": "string"
        },
        {
          "internalType": "uint256",
          "name": "_maxSupply",
          "type": "uint256"
        },
        {
          "internalType": "uint256",
          "name": "_number",
          "type": "uint256"
        }
      ],
      "stateMutability": "nonpayable",
      "type": "constructor"
    },
    {
      "anonymous": false,
      "inputs": [
        {
          "indexed": true,
          "internalType": "address",
          "name": "owner",
          "type": "address"
        },
        {
          "indexed": true,
          "internalType": "address",
          "name": "approved",
          "type": "address"
        },
        {
          "indexed": true,
          "internalType": "uint256",
          "name": "tokenId",
          "type": "uint256"
        }
      ],
      "name": "Approval",
      "type": "event"
    },
    {
      "anonymous": false,
      "inputs": [
        {
          "indexed": true,
          "internalType": "address",
          "name": "owner",
          "type": "address"
        },
        {
          "indexed": true,
          "internalType": "address",
          "name": "operator",
          "type": "address"
        },
        {
          "indexed": false,
          "internalType": "bool",
          "name": "approved",
          "type": "bool"
        }
      ],
      "name": "ApprovalForAll",
      "type": "event"
    },
    {
      "anonymous": false,
      "inputs": [
        {
          "indexed": true,
          "internalType": "address",
          "name": "previousOwner",
          "type": "address"
        },
        {
          "indexed": true,
          "internalType": "address",
          "name": "newOwner",
          "type": "address"
        }
      ],
      "name": "OwnershipTransferred",
      "type": "event"
    },
    {
      "anonymous": false,
      "inputs": [
        {
          "indexed": true,
          "internalType": "address",
          "name": "from",
          "type": "address"
        },
        {
          "indexed": true,
          "internalType": "address",
          "name": "to",
          "type": "address"
        },
        {
          "indexed": true,
          "internalType": "uint256",
          "name": "tokenId",
          "type": "uint256"
        }
      ],
      "name": "Transfer",
      "type": "event"
    },
    {
      "inputs": [
        {
          "internalType": "address",
          "name": "to",
          "type": "address"
        },
        {
          "internalType": "uint256",
          "name": "tokenId",
          "type": "uint256"
        }
      ],
      "name": "approve",
      "outputs": [],
      "stateMutability": "nonpayable",
      "type": "function"
    },
    {
      "inputs": [
        {
          "internalType": "address",
          "name": "owner",
          "type": "address"
        }
      ],
      "name": "balanceOf",
      "outputs": [
        {
          "internalType": "uint256",
          "name": "",
          "type": "uint256"
        }
      ],
      "stateMutability": "view",
      "type": "function"
    },
    {
      "inputs": [],
      "name": "collectionMinted",
      "outputs": [
        {
          "internalType": "bool",
          "name": "",
          "type": "bool"
        }
      ],
      "stateMutability": "view",
      "type": "function"
    },
    {
      "inputs": [
        {
          "internalType": "uint256",
          "name": "tokenId",
          "type": "uint256"
        }
      ],
      "name": "getApproved",
      "outputs": [
        {
          "internalType": "address",
          "name": "",
          "type": "address"
        }
      ],
      "stateMutability": "view",
      "type": "function"
    },
    {
      "inputs": [],
      "name": "getNumber",
      "outputs": [
        {
          "internalType": "uint256",
          "name": "",
          "type": "uint256"
        }
      ],
      "stateMutability": "view",
      "type": "function"
    },
    {
      "inputs": [
        {
          "internalType": "address",
          "name": "owner",
          "type": "address"
        },
        {
          "internalType": "address",
          "name": "operator",
          "type": "address"
        }
      ],
      "name": "isApprovedForAll",
      "outputs": [
        {
          "internalType": "bool",
          "name": "",
          "type": "bool"
        }
      ],
      "stateMutability": "view",
      "type": "function"
    },
    {
      "inputs": [],
      "name": "maxSupply",
      "outputs": [
        {
          "internalType": "uint256",
          "name": "",
          "type": "uint256"
        }
      ],
      "stateMutability": "view",
      "type": "function"
    },
    {
      "inputs": [],
      "name": "mint",
      "outputs": [],
      "stateMutability": "nonpayable",
      "type": "function"
    },
    {
      "inputs": [],
      "name": "multiply",
      "outputs": [],
      "stateMutability": "nonpayable",
      "type": "function"
    },
    {
      "inputs": [],
      "name": "name",
      "outputs": [
        {
          "internalType": "string",
          "name": "",
          "type": "string"
        }
      ],
      "stateMutability": "view",
      "type": "function"
    },
    {
      "inputs": [],
      "name": "owner",
      "outputs": [
        {
          "internalType": "address",
          "name": "",
          "type": "address"
        }
      ],
      "stateMutability": "view",
      "type": "function"
    },
    {
      "inputs": [
        {
          "internalType": "uint256",
          "name": "tokenId",
          "type": "uint256"
        }
      ],
      "name": "ownerOf",
      "outputs": [
        {
          "internalType": "address",
          "name": "",
          "type": "address"
        }
      ],
      "stateMutability": "view",
      "type": "function"
    },
    {
      "inputs": [],
      "name": "renounceOwnership",
      "outputs": [],
      "stateMutability": "nonpayable",
      "type": "function"
    },
    {
      "inputs": [
        {
          "internalType": "address",
          "name": "from",
          "type": "address"
        },
        {
          "internalType": "address",
          "name": "to",
          "type": "address"
        },
        {
          "internalType": "uint256",
          "name": "tokenId",
          "type": "uint256"
        }
      ],
      "name": "safeTransferFrom",
      "outputs": [],
      "stateMutability": "nonpayable",
      "type": "function"
    },
    {
      "inputs": [
        {
          "internalType": "address",
          "name": "from",
          "type": "address"
        },
        {
          "internalType": "address",
          "name": "to",
          "type": "address"
        },
        {
          "internalType": "uint256",
          "name": "tokenId",
          "type": "uint256"
        },
        {
          "internalType": "bytes",
          "name": "_data",
          "type": "bytes"
        }
      ],
      "name": "safeTransferFrom",
      "outputs": [],
      "stateMutability": "nonpayable",
      "type": "function"
    },
    {
      "inputs": [
        {
          "internalType": "address",
          "name": "operator",
          "type": "address"
        },
        {
          "internalType": "bool",
          "name": "approved",
          "type": "bool"
        }
      ],
      "name": "setApprovalForAll",
      "outputs": [],
      "stateMutability": "nonpayable",
      "type": "function"
    },
    {
      "inputs": [
        {
          "internalType": "string",
          "name": "newURI",
          "type": "string"
        }
      ],
      "name": "setBaseURI",
      "outputs": [],
      "stateMutability": "nonpayable",
      "type": "function"
    },
    {
      "inputs": [
        {
          "internalType": "bytes4",
          "name": "interfaceId",
          "type": "bytes4"
        }
      ],
      "name": "supportsInterface",
      "outputs": [
        {
          "internalType": "bool",
          "name": "",
          "type": "bool"
        }
      ],
      "stateMutability": "view",
      "type": "function"
    },
    {
      "inputs": [],
      "name": "symbol",
      "outputs": [
        {
          "internalType": "string",
          "name": "",
          "type": "string"
        }
      ],
      "stateMutability": "view",
      "type": "function"
    },
    {
      "inputs": [
        {
          "internalType": "uint256",
          "name": "index",
          "type": "uint256"
        }
      ],
      "name": "tokenByIndex",
      "outputs": [
        {
          "internalType": "uint256",
          "name": "",
          "type": "uint256"
        }
      ],
      "stateMutability": "view",
      "type": "function"
    },
    {
      "inputs": [
        {
          "internalType": "address",
          "name": "owner",
          "type": "address"
        },
        {
          "internalType": "uint256",
          "name": "index",
          "type": "uint256"
        }
      ],
      "name": "tokenOfOwnerByIndex",
      "outputs": [
        {
          "internalType": "uint256",
          "name": "",
          "type": "uint256"
        }
      ],
      "stateMutability": "view",
      "type": "function"
    },
    {
      "inputs": [
        {
          "internalType": "uint256",
          "name": "tokenId",
          "type": "uint256"
        }
      ],
      "name": "tokenURI",
      "outputs": [
        {
          "internalType": "string",
          "name": "",
          "type": "string"
        }
      ],
      "stateMutability": "view",
      "type": "function"
    },
    {
      "inputs": [],
      "name": "totalSupply",
      "outputs": [
        {
          "internalType": "uint256",
          "name": "",
          "type": "uint256"
        }
      ],
      "stateMutability": "view",
      "type": "function"
    },
    {
      "inputs": [
        {
          "internalType": "address",
          "name": "from",
          "type": "address"
        },
        {
          "internalType": "address",
          "name": "to",
          "type": "address"
        },
        {
          "internalType": "uint256",
          "name": "tokenId",
          "type": "uint256"
        }
      ],
      "name": "transferFrom",
      "outputs": [],
      "stateMutability": "nonpayable",
      "type": "function"
    },
    {
      "inputs": [
        {
          "internalType": "address",
          "name": "newOwner",
          "type": "address"
        }
      ],
      "name": "transferOwnership",
      "outputs": [],
      "stateMutability": "nonpayable",
      "type": "function"
    }
  ],
  "bytecode": "0x60a06040523480156200001157600080fd5b50604051620020ba380380620020ba83398101604081905262000034916200025c565b8451859085906200004d906001906020850190620000ff565b50805162000063906002906020840190620000ff565b505050620000806200007a620000a960201b60201c565b620000ad565b825162000095906008906020860190620000ff565b506080919091526009555062000353915050565b3390565b600780546001600160a01b038381166001600160a01b0319831681179093556040519116919082907f8be0079c531659141344cd1fd0a4f28419497f9722a3daafe3b4186f6b6457e090600090a35050565b8280546200010d9062000300565b90600052602060002090601f0160209004810192826200013157600085556200017c565b82601f106200014c57805160ff19168380011785556200017c565b828001600101855582156200017c579182015b828111156200017c5782518255916020019190600101906200015f565b506200018a9291506200018e565b5090565b5b808211156200018a57600081556001016200018f565b600082601f830112620001b757600080fd5b81516001600160401b0380821115620001d457620001d46200033d565b604051601f8301601f19908116603f01168101908282118183101715620001ff57620001ff6200033d565b816040528381526020925086838588010111156200021c57600080fd5b600091505b8382101562000240578582018301518183018401529082019062000221565b83821115620002525760008385830101525b9695505050505050565b600080600080600060a086880312156200027557600080fd5b85516001600160401b03808211156200028d57600080fd5b6200029b89838a01620001a5565b96506020880151915080821115620002b257600080fd5b620002c089838a01620001a5565b95506040880151915080821115620002d757600080fd5b50620002e688828901620001a5565b606088015160809098015196999598509695949350505050565b600181811c908216806200031557607f821691505b602082108114156200033757634e487b7160e01b600052602260045260246000fd5b50919050565b634e487b7160e01b600052604160045260246000fd5b608051611d3d6200037d60003960008181610330015281816106fd01526107530152611d3d6000f3fe608060405234801561001057600080fd5b50600436106101a35760003560e01c806370a08231116100ee578063b88d4fde11610097578063e985e9c511610071578063e985e9c514610352578063f2c9ecd81461038e578063f2fde38b14610396578063f3593cd0146103a957600080fd5b8063b88d4fde14610305578063c87b56dd14610318578063d5abeb011461032b57600080fd5b806395d89b41116100c857806395d89b41146102dd578063a22cb465146102e5578063b1ca2d1f146102f857600080fd5b806370a08231146102b1578063715018a6146102c45780638da5cb5b146102cc57600080fd5b806323b872dd116101505780634f6ccce71161012a5780634f6ccce71461027857806355f804b31461028b5780636352211e1461029e57600080fd5b806323b872dd1461023f5780632f745c591461025257806342842e0e1461026557600080fd5b8063095ea7b311610181578063095ea7b3146102105780631249c58b1461022557806318160ddd1461022d57600080fd5b806301ffc9a7146101a857806306fdde03146101d0578063081812fc146101e5575b600080fd5b6101bb6101b6366004611a0b565b6103b1565b60405190151581526020015b60405180910390f35b6101d861041e565b6040516101c79190611b77565b6101f86101f3366004611ab7565b6104b0565b6040516001600160a01b0390911681526020016101c7565b61022361021e3660046119e1565b610540565b005b610223610658565b6000545b6040519081526020016101c7565b61022361024d36600461188d565b610799565b6102316102603660046119e1565b6107a4565b61022361027336600461188d565b610910565b610231610286366004611ab7565b61092b565b610223610299366004611a45565b61098d565b6101f86102ac366004611ab7565b6109f3565b6102316102bf36600461183f565b610a05565b610223610a9f565b6007546001600160a01b03166101f8565b6101d8610b05565b6102236102f33660046119a5565b610b14565b600a546101bb9060ff1681565b6102236103133660046118c9565b610bd9565b6101d8610326366004611ab7565b610c5e565b6102317f000000000000000000000000000000000000000000000000000000000000000081565b6101bb61036036600461185a565b6001600160a01b03918216600090815260066020908152604080832093909416825291909152205460ff1690565b600954610231565b6102236103a436600461183f565b610d3a565b610223610e05565b60006001600160e01b031982166380ac58cd60e01b14806103e257506001600160e01b03198216635b5e139f60e01b145b806103fd57506001600160e01b0319821663780e9d6360e01b145b8061041857506301ffc9a760e01b6001600160e01b03198316145b92915050565b60606001805461042d90611c2f565b80601f016020809104026020016040519081016040528092919081815260200182805461045990611c2f565b80156104a65780601f1061047b576101008083540402835291602001916104a6565b820191906000526020600020905b81548152906001019060200180831161048957829003601f168201915b5050505050905090565b60006104bd826000541190565b6105245760405162461bcd60e51b815260206004820152602d60248201527f455243373231413a20617070726f76656420717565727920666f72206e6f6e6560448201526c3c34b9ba32b73a103a37b5b2b760991b60648201526084015b60405180910390fd5b506000908152600560205260409020546001600160a01b031690565b600061054b826109f3565b9050806001600160a01b0316836001600160a01b031614156105ba5760405162461bcd60e51b815260206004820152602260248201527f455243373231413a20617070726f76616c20746f2063757272656e74206f776e60448201526132b960f11b606482015260840161051b565b336001600160a01b03821614806105d657506105d68133610360565b6106485760405162461bcd60e51b815260206004820152603960248201527f455243373231413a20617070726f76652063616c6c6572206973206e6f74206f60448201527f776e6572206e6f7220617070726f76656420666f7220616c6c00000000000000606482015260840161051b565b610653838383610e1f565b505050565b6007546001600160a01b031633146106b25760405162461bcd60e51b815260206004820181905260248201527f4f776e61626c653a2063616c6c6572206973206e6f7420746865206f776e6572604482015260640161051b565b600a5460ff16156106f45760405162461bcd60e51b815260206004820152600c60248201526b416c726561647920646f6e6560a01b604482015260640161051b565b6000610721600a7f0000000000000000000000000000000000000000000000000000000000000000611ba2565b90505b600181106107495761073733600a610e88565b8061074181611c18565b915050610724565b506000610777600a7f0000000000000000000000000000000000000000000000000000000000000000611c85565b90508015610789576107893382610e88565b50600a805460ff19166001179055565b610653838383610ea6565b60006107af83610a05565b82106108085760405162461bcd60e51b815260206004820152602260248201527f455243373231413a206f776e657220696e646578206f7574206f6620626f756e604482015261647360f01b606482015260840161051b565b600080549080805b838110156108a1576000818152600360209081526040918290208251808401909352546001600160a01b038116808452600160a01b90910467ffffffffffffffff16918301919091521561086357805192505b876001600160a01b0316836001600160a01b0316141561089857868414156108915750935061041892505050565b6001909301925b50600101610810565b5060405162461bcd60e51b815260206004820152602e60248201527f455243373231413a20756e61626c6520746f2067657420746f6b656e206f662060448201527f6f776e657220627920696e646578000000000000000000000000000000000000606482015260840161051b565b61065383838360405180602001604052806000815250610bd9565b6000805482106109895760405162461bcd60e51b815260206004820152602360248201527f455243373231413a20676c6f62616c20696e646578206f7574206f6620626f756044820152626e647360e81b606482015260840161051b565b5090565b6007546001600160a01b031633146109e75760405162461bcd60e51b815260206004820181905260248201527f4f776e61626c653a2063616c6c6572206973206e6f7420746865206f776e6572604482015260640161051b565b61065360088383611793565b60006109fe826111a8565b5192915050565b60006001600160a01b038216610a715760405162461bcd60e51b815260206004820152602b60248201527f455243373231413a2062616c616e636520717565727920666f7220746865207a60448201526a65726f206164647265737360a81b606482015260840161051b565b506001600160a01b03166000908152600460205260409020546fffffffffffffffffffffffffffffffff1690565b6007546001600160a01b03163314610af95760405162461bcd60e51b815260206004820181905260248201527f4f776e61626c653a2063616c6c6572206973206e6f7420746865206f776e6572604482015260640161051b565b610b03600061127f565b565b60606002805461042d90611c2f565b6001600160a01b038216331415610b6d5760405162461bcd60e51b815260206004820152601a60248201527f455243373231413a20617070726f766520746f2063616c6c6572000000000000604482015260640161051b565b3360008181526006602090815260408083206001600160a01b03871680855290835292819020805460ff191686151590811790915590519081529192917f17307eab39ab6107e8899845ad3d59bd9653f200f220920489ca2b5937696c31910160405180910390a35050565b610be4848484610ea6565b610bf0848484846112de565b610c585760405162461bcd60e51b815260206004820152603360248201527f455243373231413a207472616e7366657220746f206e6f6e204552433732315260448201527232b1b2b4bb32b91034b6b83632b6b2b73a32b960691b606482015260840161051b565b50505050565b6060610c6b826000541190565b610cdd5760405162461bcd60e51b815260206004820152602f60248201527f4552433732314d657461646174613a2055524920717565727920666f72206e6f60448201527f6e6578697374656e7420746f6b656e0000000000000000000000000000000000606482015260840161051b565b6000610ce7611438565b9050805160001415610d085760405180602001604052806000815250610d33565b80610d1284611447565b604051602001610d23929190611afc565b6040516020818303038152906040525b9392505050565b6007546001600160a01b03163314610d945760405162461bcd60e51b815260206004820181905260248201527f4f776e61626c653a2063616c6c6572206973206e6f7420746865206f776e6572604482015260640161051b565b6001600160a01b038116610df95760405162461bcd60e51b815260206004820152602660248201527f4f776e61626c653a206e6577206f776e657220697320746865207a65726f206160448201526564647265737360d01b606482015260840161051b565b610e028161127f565b50565b600260096000828254610e189190611bb6565b9091555050565b600082815260056020526040808220805473ffffffffffffffffffffffffffffffffffffffff19166001600160a01b0387811691821790925591518593918516917f8c5be1e5ebec7d5bd14f71427d1e84f3dd0314c0f7b2291e5b200ac8c7c3b92591a4505050565b610ea282826040518060200160405280600081525061155d565b5050565b6000610eb1826111a8565b80519091506000906001600160a01b0316336001600160a01b03161480610ee8575033610edd846104b0565b6001600160a01b0316145b80610efa57508151610efa9033610360565b905080610f6f5760405162461bcd60e51b815260206004820152603260248201527f455243373231413a207472616e736665722063616c6c6572206973206e6f742060448201527f6f776e6572206e6f7220617070726f7665640000000000000000000000000000606482015260840161051b565b846001600160a01b031682600001516001600160a01b031614610fe35760405162461bcd60e51b815260206004820152602660248201527f455243373231413a207472616e736665722066726f6d20696e636f72726563746044820152651037bbb732b960d11b606482015260840161051b565b6001600160a01b0384166110475760405162461bcd60e51b815260206004820152602560248201527f455243373231413a207472616e7366657220746f20746865207a65726f206164604482015264647265737360d81b606482015260840161051b565b6110576000848460000151610e1f565b6001600160a01b03858116600090815260046020908152604080832080546fffffffffffffffffffffffffffffffff198082166fffffffffffffffffffffffffffffffff928316600019018316179092558986168086528386208054938416938316600190810190931693909317909255888552600390935281842080546001600160e01b031916909117600160a01b4267ffffffffffffffff160217905590860180835291205490911661115e57611111816000541190565b1561115e578251600082815260036020908152604090912080549186015167ffffffffffffffff16600160a01b026001600160e01b03199092166001600160a01b03909316929092171790555b5082846001600160a01b0316866001600160a01b03167fddf252ad1be2c89b69c2b068fc378daa952ba7f163c4a11628f55a4df523b3ef60405160405180910390a45b5050505050565b60408051808201909152600080825260208201526111c7826000541190565b6112265760405162461bcd60e51b815260206004820152602a60248201527f455243373231413a206f776e657220717565727920666f72206e6f6e657869736044820152693a32b73a103a37b5b2b760b11b606482015260840161051b565b815b6000818152600360209081526040918290208251808401909352546001600160a01b038116808452600160a01b90910467ffffffffffffffff169183019190915215611275579392505050565b5060001901611228565b600780546001600160a01b0383811673ffffffffffffffffffffffffffffffffffffffff19831681179093556040519116919082907f8be0079c531659141344cd1fd0a4f28419497f9722a3daafe3b4186f6b6457e090600090a35050565b60006001600160a01b0384163b1561142c57604051630a85bd0160e11b81526001600160a01b0385169063150b7a0290611322903390899088908890600401611b3b565b602060405180830381600087803b15801561133c57600080fd5b505af192505050801561136c575060408051601f3d908101601f1916820190925261136991810190611a28565b60015b611412573d80801561139a576040519150601f19603f3d011682016040523d82523d6000602084013e61139f565b606091505b50805161140a5760405162461bcd60e51b815260206004820152603360248201527f455243373231413a207472616e7366657220746f206e6f6e204552433732315260448201527232b1b2b4bb32b91034b6b83632b6b2b73a32b960691b606482015260840161051b565b805181602001fd5b6001600160e01b031916630a85bd0160e11b149050611430565b5060015b949350505050565b60606008805461042d90611c2f565b60608161146b5750506040805180820190915260018152600360fc1b602082015290565b8160005b8115611495578061147f81611c6a565b915061148e9050600a83611ba2565b915061146f565b60008167ffffffffffffffff8111156114b0576114b0611cdb565b6040519080825280601f01601f1916602001820160405280156114da576020820181803683370190505b5090505b8415611430576114ef600183611bd5565b91506114fc600a86611c85565b611507906030611b8a565b60f81b81838151811061151c5761151c611cc5565b60200101907effffffffffffffffffffffffffffffffffffffffffffffffffffffffffffff1916908160001a905350611556600a86611ba2565b94506114de565b61065383838360016000546001600160a01b0385166115c85760405162461bcd60e51b815260206004820152602160248201527f455243373231413a206d696e7420746f20746865207a65726f206164647265736044820152607360f81b606482015260840161051b565b836116265760405162461bcd60e51b815260206004820152602860248201527f455243373231413a207175616e74697479206d75737420626520677265617465604482015267072207468616e20360c41b606482015260840161051b565b6001600160a01b038516600081815260046020908152604080832080547001000000000000000000000000000000006fffffffffffffffffffffffffffffffff1982166fffffffffffffffffffffffffffffffff9283168c01831690811782900483168c01909216021790558483526003909152812080546001600160e01b031916909217600160a01b4267ffffffffffffffff16021790915581905b8581101561178a5760405182906001600160a01b038916906000907fddf252ad1be2c89b69c2b068fc378daa952ba7f163c4a11628f55a4df523b3ef908290a4831561177e5761171660008884886112de565b61177e5760405162461bcd60e51b815260206004820152603360248201527f455243373231413a207472616e7366657220746f206e6f6e204552433732315260448201527232b1b2b4bb32b91034b6b83632b6b2b73a32b960691b606482015260840161051b565b600191820191016116c3565b506000556111a1565b82805461179f90611c2f565b90600052602060002090601f0160209004810192826117c15760008555611807565b82601f106117da5782800160ff19823516178555611807565b82800160010185558215611807579182015b828111156118075782358255916020019190600101906117ec565b506109899291505b80821115610989576000815560010161180f565b80356001600160a01b038116811461183a57600080fd5b919050565b60006020828403121561185157600080fd5b610d3382611823565b6000806040838503121561186d57600080fd5b61187683611823565b915061188460208401611823565b90509250929050565b6000806000606084860312156118a257600080fd5b6118ab84611823565b92506118b960208501611823565b9150604084013590509250925092565b600080600080608085870312156118df57600080fd5b6118e885611823565b93506118f660208601611823565b925060408501359150606085013567ffffffffffffffff8082111561191a57600080fd5b818701915087601f83011261192e57600080fd5b81358181111561194057611940611cdb565b604051601f8201601f19908116603f0116810190838211818310171561196857611968611cdb565b816040528281528a602084870101111561198157600080fd5b82602086016020830137600060208483010152809550505050505092959194509250565b600080604083850312156119b857600080fd5b6119c183611823565b9150602083013580151581146119d657600080fd5b809150509250929050565b600080604083850312156119f457600080fd5b6119fd83611823565b946020939093013593505050565b600060208284031215611a1d57600080fd5b8135610d3381611cf1565b600060208284031215611a3a57600080fd5b8151610d3381611cf1565b60008060208385031215611a5857600080fd5b823567ffffffffffffffff80821115611a7057600080fd5b818501915085601f830112611a8457600080fd5b813581811115611a9357600080fd5b866020828501011115611aa557600080fd5b60209290920196919550909350505050565b600060208284031215611ac957600080fd5b5035919050565b60008151808452611ae8816020860160208601611bec565b601f01601f19169290920160200192915050565b60008351611b0e818460208801611bec565b835190830190611b22818360208801611bec565b64173539b7b760d91b9101908152600501949350505050565b60006001600160a01b03808716835280861660208401525083604083015260806060830152611b6d6080830184611ad0565b9695505050505050565b602081526000610d336020830184611ad0565b60008219821115611b9d57611b9d611c99565b500190565b600082611bb157611bb1611caf565b500490565b6000816000190483118215151615611bd057611bd0611c99565b500290565b600082821015611be757611be7611c99565b500390565b60005b83811015611c07578181015183820152602001611bef565b83811115610c585750506000910152565b600081611c2757611c27611c99565b506000190190565b600181811c90821680611c4357607f821691505b60208210811415611c6457634e487b7160e01b600052602260045260246000fd5b50919050565b6000600019821415611c7e57611c7e611c99565b5060010190565b600082611c9457611c94611caf565b500690565b634e487b7160e01b600052601160045260246000fd5b634e487b7160e01b600052601260045260246000fd5b634e487b7160e01b600052603260045260246000fd5b634e487b7160e01b600052604160045260246000fd5b6001600160e01b031981168114610e0257600080fdfea264697066735822122090d39963dad4ea268ac51dcd888c2597c3ff7ea2ffc5ce2a3f65b61f3b6b2e1c64736f6c63430008070033",
  "linkReferences": {},
  "deployedLinkReferences": {}
}